{
  "contractName": "TicTacToe",
  "abi": [
    {
      "constant": true,
      "inputs": [],
      "name": "boardsize",
      "outputs": [
        {
          "name": "",
          "type": "uint256"
        }
      ],
      "payable": false,
      "stateMutability": "view",
      "type": "function"
    },
    {
      "constant": true,
      "inputs": [],
      "name": "player2",
      "outputs": [
        {
          "name": "",
          "type": "address"
        }
      ],
      "payable": false,
      "stateMutability": "view",
      "type": "function"
    },
    {
      "constant": true,
      "inputs": [],
      "name": "player1",
      "outputs": [
        {
          "name": "",
          "type": "address"
        }
      ],
      "payable": false,
      "stateMutability": "view",
      "type": "function"
    },
    {
      "inputs": [],
      "payable": true,
      "stateMutability": "payable",
      "type": "constructor"
    },
    {
      "anonymous": false,
      "inputs": [
        {
          "indexed": false,
          "name": "player",
          "type": "address"
        }
      ],
      "name": "PlayerJoined",
      "type": "event"
    },
    {
      "anonymous": false,
      "inputs": [
        {
          "indexed": false,
          "name": "player",
          "type": "address"
        }
      ],
      "name": "NextPlayer",
      "type": "event"
    },
    {
      "anonymous": false,
      "inputs": [
        {
          "indexed": false,
          "name": "player",
          "type": "address"
        }
      ],
      "name": "GameOverWithWin",
      "type": "event"
    },
    {
      "anonymous": false,
      "inputs": [],
      "name": "GameOverWithDraw",
      "type": "event"
    },
    {
      "anonymous": false,
      "inputs": [
        {
          "indexed": false,
          "name": "receiver",
          "type": "address"
        },
        {
          "indexed": false,
          "name": "AmtTransferred",
          "type": "uint256"
        }
      ],
      "name": "PaymentSuccess",
      "type": "event"
    },
    {
      "constant": false,
      "inputs": [],
      "name": "joinGame",
      "outputs": [],
      "payable": true,
      "stateMutability": "payable",
      "type": "function"
    },
    {
      "constant": false,
      "inputs": [
        {
          "name": "winner",
          "type": "address"
        }
      ],
      "name": "setWinner",
      "outputs": [],
      "payable": false,
      "stateMutability": "nonpayable",
      "type": "function"
    },
    {
      "constant": false,
      "inputs": [],
      "name": "withdraw",
      "outputs": [],
      "payable": false,
      "stateMutability": "nonpayable",
      "type": "function"
    },
    {
      "constant": false,
      "inputs": [],
      "name": "emergencyCashOut",
      "outputs": [],
      "payable": false,
      "stateMutability": "nonpayable",
      "type": "function"
    },
    {
      "constant": true,
      "inputs": [],
      "name": "viewBoard",
      "outputs": [
        {
          "name": "",
          "type": "address[3][3]"
        }
      ],
      "payable": false,
      "stateMutability": "view",
      "type": "function"
    },
    {
      "constant": true,
      "inputs": [],
      "name": "whoIsActive",
      "outputs": [
        {
          "name": "",
          "type": "address"
        }
      ],
      "payable": false,
      "stateMutability": "view",
      "type": "function"
    },
    {
      "constant": false,
      "inputs": [
        {
          "name": "x",
          "type": "uint256"
        },
        {
          "name": "y",
          "type": "uint256"
        }
      ],
      "name": "setStone",
      "outputs": [],
      "payable": false,
      "stateMutability": "nonpayable",
      "type": "function"
    }
  ],
  "bytecode": "0x60806040526003600d5530600e60016101000a81548173ffffffffffffffffffffffffffffffffffffffff021916908373ffffffffffffffffffffffffffffffffffffffff160217905550670de0b6b3a764000060115560b46012556011543414151561006b57600080fd5b336000806101000a81548173ffffffffffffffffffffffffffffffffffffffff021916908373ffffffffffffffffffffffffffffffffffffffff1602179055506000809054906101000a900473ffffffffffffffffffffffffffffffffffffffff16600360006101000a81548173ffffffffffffffffffffffffffffffffffffffff021916908373ffffffffffffffffffffffffffffffffffffffff1602179055507f637351f91da430278368fb3e486c8c3da47b2e6ce4d28b2c404cb044702ca7e1600360009054906101000a900473ffffffffffffffffffffffffffffffffffffffff16604051808273ffffffffffffffffffffffffffffffffffffffff1673ffffffffffffffffffffffffffffffffffffffff16815260200191505060405180910390a160125442016013819055506114c6806101ac6000396000f3006080604052600436106100a4576000357c0100000000000000000000000000000000000000000000000000000000900463ffffffff1680631e6d2a16146100a95780633ccfd60b146100e05780633fde48ca146100f757806349e9c7bb1461010e57806359a5f12d146101395780635ef8670e14610190578063d30895e4146101e7578063d4f77b1c1461023e578063d9fca76914610248578063e7c0bac81461028b575b600080fd5b3480156100b557600080fd5b506100de6004803603810190808035906020019092919080359060200190929190505050610301565b005b3480156100ec57600080fd5b506100f5610a63565b005b34801561010357600080fd5b5061010c610ce4565b005b34801561011a57600080fd5b50610123610d19565b6040518082815260200191505060405180910390f35b34801561014557600080fd5b5061014e610d1f565b604051808273ffffffffffffffffffffffffffffffffffffffff1673ffffffffffffffffffffffffffffffffffffffff16815260200191505060405180910390f35b34801561019c57600080fd5b506101a5610d45565b604051808273ffffffffffffffffffffffffffffffffffffffff1673ffffffffffffffffffffffffffffffffffffffff16815260200191505060405180910390f35b3480156101f357600080fd5b506101fc610d6f565b604051808273ffffffffffffffffffffffffffffffffffffffff1673ffffffffffffffffffffffffffffffffffffffff16815260200191505060405180910390f35b610246610d94565b005b34801561025457600080fd5b50610289600480360381019080803573ffffffffffffffffffffffffffffffffffffffff169060200190929190505050610f2a565b005b34801561029757600080fd5b506102a0611104565b604051808260036000925b818410156102f15782846020020151600360200280838360005b838110156102e05780820151818401526020810190506102c5565b5050505090500192600101926102ab565b9250505091505060405180910390f35b60004260135411151561031357600080fd5b600073ffffffffffffffffffffffffffffffffffffffff1660048460038110151561033a57fe5b600302018360038110151561034b57fe5b0160009054906101000a900473ffffffffffffffffffffffffffffffffffffffff1673ffffffffffffffffffffffffffffffffffffffff1614151561038f57600080fd5b600d548310151561039c57fe5b600d54821015156103a957fe5b600360009054906101000a900473ffffffffffffffffffffffffffffffffffffffff1673ffffffffffffffffffffffffffffffffffffffff163373ffffffffffffffffffffffffffffffffffffffff1614151561040257fe5b3360048460038110151561041257fe5b600302018360038110151561042357fe5b0160006101000a81548173ffffffffffffffffffffffffffffffffffffffff021916908373ffffffffffffffffffffffffffffffffffffffff1602179055506012544201601381905550600160008154809291906001019190505550600090505b600d5481101561057557600360009054906101000a900473ffffffffffffffffffffffffffffffffffffffff1673ffffffffffffffffffffffffffffffffffffffff166004846003811015156104d657fe5b60030201826003811015156104e757fe5b0160009054906101000a900473ffffffffffffffffffffffffffffffffffffffff1673ffffffffffffffffffffffffffffffffffffffff1614151561052b57610575565b6001600d540381141561056857610563600360009054906101000a900473ffffffffffffffffffffffffffffffffffffffff16610f2a565b610a5e565b8080600101915050610484565b600090505b600d5481101561066b57600360009054906101000a900473ffffffffffffffffffffffffffffffffffffffff1673ffffffffffffffffffffffffffffffffffffffff166004826003811015156105cc57fe5b60030201836003811015156105dd57fe5b0160009054906101000a900473ffffffffffffffffffffffffffffffffffffffff1673ffffffffffffffffffffffffffffffffffffffff161415156106215761066b565b6001600d540381141561065e57610659600360009054906101000a900473ffffffffffffffffffffffffffffffffffffffff16610f2a565b610a5e565b808060010191505061057a565b8183141561076a57600090505b600d5481101561076957600360009054906101000a900473ffffffffffffffffffffffffffffffffffffffff1673ffffffffffffffffffffffffffffffffffffffff166004826003811015156106ca57fe5b60030201826003811015156106db57fe5b0160009054906101000a900473ffffffffffffffffffffffffffffffffffffffff1673ffffffffffffffffffffffffffffffffffffffff1614151561071f57610769565b6001600d540381141561075c57610757600360009054906101000a900473ffffffffffffffffffffffffffffffffffffffff16610f2a565b610a5e565b8080600101915050610678565b5b6001600d5403828401141561087a57600090505b6001600d540381101561087957600360009054906101000a900473ffffffffffffffffffffffffffffffffffffffff1673ffffffffffffffffffffffffffffffffffffffff166004826003811015156107d357fe5b60030201826001600d5403036003811015156107eb57fe5b0160009054906101000a900473ffffffffffffffffffffffffffffffffffffffff1673ffffffffffffffffffffffffffffffffffffffff1614151561082f57610879565b6001600d540381141561086c57610867600360009054906101000a900473ffffffffffffffffffffffffffffffffffffffff16610f2a565b610a5e565b808060010191505061077e565b5b6002600d540a6001541415610896576108916111bd565b610a5e565b6000809054906101000a900473ffffffffffffffffffffffffffffffffffffffff1673ffffffffffffffffffffffffffffffffffffffff16600360009054906101000a900473ffffffffffffffffffffffffffffffffffffffff1673ffffffffffffffffffffffffffffffffffffffff16141561097557600260009054906101000a900473ffffffffffffffffffffffffffffffffffffffff16600360006101000a81548173ffffffffffffffffffffffffffffffffffffffff021916908373ffffffffffffffffffffffffffffffffffffffff1602179055506109d8565b6000809054906101000a900473ffffffffffffffffffffffffffffffffffffffff16600360006101000a81548173ffffffffffffffffffffffffffffffffffffffff021916908373ffffffffffffffffffffffffffffffffffffffff1602179055505b7f637351f91da430278368fb3e486c8c3da47b2e6ce4d28b2c404cb044702ca7e1600360009054906101000a900473ffffffffffffffffffffffffffffffffffffffff16604051808273ffffffffffffffffffffffffffffffffffffffff1673ffffffffffffffffffffffffffffffffffffffff16815260200191505060405180910390a15b505050565b6000809054906101000a900473ffffffffffffffffffffffffffffffffffffffff1673ffffffffffffffffffffffffffffffffffffffff163373ffffffffffffffffffffffffffffffffffffffff161415610bce576000600f54111515610ac957600080fd5b6000809054906101000a900473ffffffffffffffffffffffffffffffffffffffff1673ffffffffffffffffffffffffffffffffffffffff166108fc600f549081150290604051600060405180830381858888f19350505050158015610b32573d6000803e3d6000fd5b507f221d66b961be8003c9dd0af0b21309ca7835b193e42266aeb52faaef029d97356000809054906101000a900473ffffffffffffffffffffffffffffffffffffffff16600f54604051808373ffffffffffffffffffffffffffffffffffffffff1673ffffffffffffffffffffffffffffffffffffffff1681526020018281526020019250505060405180910390a16000600f81905550610ce2565b6000601054111515610bdf57600080fd5b600260009054906101000a900473ffffffffffffffffffffffffffffffffffffffff1673ffffffffffffffffffffffffffffffffffffffff166108fc6010549081150290604051600060405180830381858888f19350505050158015610c49573d6000803e3d6000fd5b507f221d66b961be8003c9dd0af0b21309ca7835b193e42266aeb52faaef029d9735600260009054906101000a900473ffffffffffffffffffffffffffffffffffffffff16601054604051808373ffffffffffffffffffffffffffffffffffffffff1673ffffffffffffffffffffffffffffffffffffffff1681526020018281526020019250505060405180910390a160006010819055505b565b42601354101515610cf457600080fd5b600e60009054906101000a900460ff161515610d0f57600080fd5b610d176111bd565b565b600d5481565b600260009054906101000a900473ffffffffffffffffffffffffffffffffffffffff1681565b6000600360009054906101000a900473ffffffffffffffffffffffffffffffffffffffff16905090565b6000809054906101000a900473ffffffffffffffffffffffffffffffffffffffff1681565b60115434141515610da457600080fd5b600073ffffffffffffffffffffffffffffffffffffffff16600260009054906101000a900473ffffffffffffffffffffffffffffffffffffffff1673ffffffffffffffffffffffffffffffffffffffff16148015610e4f57506000809054906101000a900473ffffffffffffffffffffffffffffffffffffffff1673ffffffffffffffffffffffffffffffffffffffff163373ffffffffffffffffffffffffffffffffffffffff1614155b1515610e5757fe5b33600260006101000a81548173ffffffffffffffffffffffffffffffffffffffff021916908373ffffffffffffffffffffffffffffffffffffffff1602179055507f31e760aa525306aba638a784082a013b6a1cc0a9a1789f3f22281c0453b10b1f600260009054906101000a900473ffffffffffffffffffffffffffffffffffffffff16604051808273ffffffffffffffffffffffffffffffffffffffff1673ffffffffffffffffffffffffffffffffffffffff16815260200191505060405180910390a16012544201601381905550565b600080600e60006101000a81548160ff0219169083151502179055507f8245a3876d42d9b0bdb7f24184c03fc24e3d8a079f492b1ec9ceae70b366edf982604051808273ffffffffffffffffffffffffffffffffffffffff1673ffffffffffffffffffffffffffffffffffffffff16815260200191505060405180910390a1600e60019054906101000a900473ffffffffffffffffffffffffffffffffffffffff1673ffffffffffffffffffffffffffffffffffffffff16319050600015158273ffffffffffffffffffffffffffffffffffffffff166108fc839081150290604051600060405180830381858888f1935050505015151415611094576000809054906101000a900473ffffffffffffffffffffffffffffffffffffffff1673ffffffffffffffffffffffffffffffffffffffff168273ffffffffffffffffffffffffffffffffffffffff1614156110875780600f8190555061108f565b806010819055505b611100565b7f221d66b961be8003c9dd0af0b21309ca7835b193e42266aeb52faaef029d97358282604051808373ffffffffffffffffffffffffffffffffffffffff1673ffffffffffffffffffffffffffffffffffffffff1681526020018281526020019250505060405180910390a15b5050565b61110c611448565b6004600380602002604051908101604052809291906000905b828210156111b4578382600302016003806020026040519081016040528092919082600380156111a0576020028201915b8160009054906101000a900473ffffffffffffffffffffffffffffffffffffffff1673ffffffffffffffffffffffffffffffffffffffff1681526020019060010190808311611156575b505050505081526020019060010190611125565b50505050905090565b600080600e60006101000a81548160ff0219169083151502179055507f2207d46a2ba0f2acda06e9a222b40fd004e385738b3f868e63b2c0bfe4bc094c60405160405180910390a16002600e60019054906101000a900473ffffffffffffffffffffffffffffffffffffffff1673ffffffffffffffffffffffffffffffffffffffff163181151561124a57fe5b049050600015156000809054906101000a900473ffffffffffffffffffffffffffffffffffffffff1673ffffffffffffffffffffffffffffffffffffffff166108fc839081150290604051600060405180830381858888f19350505050151514156112bb5780600f81905550611348565b7f221d66b961be8003c9dd0af0b21309ca7835b193e42266aeb52faaef029d97356000809054906101000a900473ffffffffffffffffffffffffffffffffffffffff1682604051808373ffffffffffffffffffffffffffffffffffffffff1673ffffffffffffffffffffffffffffffffffffffff1681526020018281526020019250505060405180910390a15b60001515600260009054906101000a900473ffffffffffffffffffffffffffffffffffffffff1673ffffffffffffffffffffffffffffffffffffffff166108fc839081150290604051600060405180830381858888f19350505050151514156113b75780601081905550611445565b7f221d66b961be8003c9dd0af0b21309ca7835b193e42266aeb52faaef029d9735600260009054906101000a900473ffffffffffffffffffffffffffffffffffffffff1682604051808373ffffffffffffffffffffffffffffffffffffffff1673ffffffffffffffffffffffffffffffffffffffff1681526020018281526020019250505060405180910390a15b50565b610120604051908101604052806003905b611461611477565b8152602001906001900390816114595790505090565b6060604051908101604052806003906020820280388339808201915050905050905600a165627a7a72305820eeb0ef46631682210a042c6d5c36400a5d9d1caf71ab4a4d7355eb2d471932400029",
  "source": "pragma solidity ^0.4.18;\ncontract TicTacToe {\n\n    address public player1;\n    uint movesCounter;\n    address public player2;\n    address activePlayer;\n    address[3][3] board;\n    uint public boardsize = 3;\n    bool gameActive;\n    address thisAddress = this;\n    uint withdrawToPlayer1;\n    uint withdrawToPlayer2;\n    uint gameCost = 1 ether;\n    uint timeToReact = 3 minutes;\n    uint gameValidUntil;\n\n    event PlayerJoined(address player);\n    event NextPlayer(address player);\n    event GameOverWithWin(address player);\n    event GameOverWithDraw();\n    event PaymentSuccess(address receiver, uint AmtTransferred);\n\n\n    function TicTacToe() public payable {\n        require(msg.value == gameCost);\n        player1 = msg.sender;\n        activePlayer = player1;\n        NextPlayer(activePlayer);\n        gameValidUntil = now + timeToReact;\n    }\n\n    function joinGame() public payable {\n        require(msg.value == gameCost);\n        assert (player2 == address(0) && msg.sender != player1);\n        player2 = msg.sender;\n        PlayerJoined(player2);\n        gameValidUntil = now + timeToReact;\n    }\n\n    function setWinner(address winner) public {\n        gameActive = false;\n        GameOverWithWin(winner);\n        uint balanceToPayOut = thisAddress.balance;\n        if (winner.send(balanceToPayOut) == false){\n            if (winner == player1){\n                withdrawToPlayer1 = balanceToPayOut;\n            }\n            else{\n                withdrawToPlayer2 = balanceToPayOut;\n            }\n        }\n        else{\n            PaymentSuccess(winner, balanceToPayOut);\n        }\n    }\n\n\n    function withdraw() public {\n        if (msg.sender == player1){\n            require(withdrawToPlayer1>0);\n            player1.transfer(withdrawToPlayer1);\n            //withdrawToPlayer1 = 0;\n            PaymentSuccess(player1, withdrawToPlayer1);\n            withdrawToPlayer1 = 0;\n        }\n        else{\n            require(withdrawToPlayer2>0);\n            player2.transfer(withdrawToPlayer2);\n            //withdrawToPlayer2 = 0;\n            PaymentSuccess(player2, withdrawToPlayer2);\n            withdrawToPlayer2 = 0;\n        }\n    }\n\n    function setDraw() private {\n        gameActive = false;\n        GameOverWithDraw();\n        uint balanceToPayOut = thisAddress.balance/2;\n        if (player1.send(balanceToPayOut) == false){\n            withdrawToPlayer1 = balanceToPayOut;\n        }\n        else{\n            PaymentSuccess(player1, balanceToPayOut);\n        }\n\n        if (player2.send(balanceToPayOut) == false){\n            withdrawToPlayer2 = balanceToPayOut;\n        }\n        else{\n            PaymentSuccess(player2, balanceToPayOut);\n        }\n    }\n\n\n    function emergencyCashOut() public {\n        require(gameValidUntil < now);\n        require(gameActive);\n        setDraw();\n    }\n    function viewBoard() public view returns (address[3][3]){\n        return board;\n    }\n\n    function whoIsActive() public view returns(address){\n        return activePlayer;\n    }\n    function setStone(uint x, uint y) public {\n        require(gameValidUntil > now);\n        require(board[x][y] == address(0));\n        assert(x < boardsize);\n        assert(y < boardsize);\n        assert (msg.sender == activePlayer);\n        board[x][y] = msg.sender;\n        gameValidUntil = now + timeToReact;\n        movesCounter++;\n        for (uint i =0; i < boardsize; i++){\n            if (board[x][i] != activePlayer){\n                break;\n            }\n            if (i == boardsize-1){\n                setWinner(activePlayer);\n                return;\n            }\n        }\n        for (i=0; i < boardsize; i++){\n            if (board[i][y] != activePlayer){\n                break;\n            }\n            if (i == boardsize-1){\n                setWinner(activePlayer);\n                return;\n            }\n        }\n        //diagonal\n\n        if (x == y){\n            for(i=0;i<boardsize;i++){\n                if (board[i][i] != activePlayer){\n                    break;\n                }\n                if (i == boardsize-1){\n                    setWinner(activePlayer);\n                    return;\n                }\n            }\n        }\n        //anti-diagonal\n        if(x+y == boardsize-1){\n            for(i=0;i<boardsize-1;i++){\n                if(board[i][(boardsize-1) - i] != activePlayer){\n                    break;\n                }\n                if ( i == boardsize-1){\n                    setWinner(activePlayer);\n                    return;\n                }\n            }\n        }\n\n        if (movesCounter == boardsize**2){\n            setDraw();\n            return;\n        }\n\n        if (activePlayer == player1){\n            activePlayer = player2;\n        }else{\n            activePlayer = player1;\n        }\n\n        NextPlayer(activePlayer);\n    }\n}\n",
  "sourcePath": "/home/avantika/Truffle/contracts/TicTacToe.sol",
  "compiler": {
    "name": "solc",
    "version": "0.4.23+commit.124ca40d.Emscripten.clang"
  },
  "schemaVersion": "2.0.0",
  "updatedAt": "2018-05-04T15:24:21.301Z"
}